{
  "address": "0xe7f1725E7734CE288F8367e1Bb143E90bb3F0512",
  "abi": [
    {
      "inputs": [
        {
          "internalType": "address",
          "name": "priceFeedAddress",
          "type": "address"
        }
      ],
      "stateMutability": "nonpayable",
      "type": "constructor"
    },
    {
      "inputs": [],
      "name": "FundMe__NotEnough",
      "type": "error"
    },
    {
      "inputs": [],
      "name": "FundMe__NotOwner",
      "type": "error"
    },
    {
      "inputs": [],
      "name": "FundMe__isError",
      "type": "error"
    },
    {
      "stateMutability": "payable",
      "type": "fallback"
    },
    {
      "inputs": [],
      "name": "MINIMUM_USD",
      "outputs": [
        {
          "internalType": "uint256",
          "name": "",
          "type": "uint256"
        }
      ],
      "stateMutability": "view",
      "type": "function"
    },
    {
      "inputs": [
        {
          "internalType": "address",
          "name": "",
          "type": "address"
        }
      ],
      "name": "addressToamountFunded",
      "outputs": [
        {
          "internalType": "uint256",
          "name": "",
          "type": "uint256"
        }
      ],
      "stateMutability": "view",
      "type": "function"
    },
    {
      "inputs": [],
      "name": "fund",
      "outputs": [],
      "stateMutability": "payable",
      "type": "function"
    },
    {
      "inputs": [],
      "name": "i_owner",
      "outputs": [
        {
          "internalType": "address",
          "name": "",
          "type": "address"
        }
      ],
      "stateMutability": "view",
      "type": "function"
    },
    {
      "inputs": [],
      "name": "priceFeed",
      "outputs": [
        {
          "internalType": "contract AggregatorV3Interface",
          "name": "",
          "type": "address"
        }
      ],
      "stateMutability": "view",
      "type": "function"
    },
    {
      "inputs": [
        {
          "internalType": "uint256",
          "name": "",
          "type": "uint256"
        }
      ],
      "name": "s_funders",
      "outputs": [
        {
          "internalType": "address",
          "name": "",
          "type": "address"
        }
      ],
      "stateMutability": "view",
      "type": "function"
    },
    {
      "inputs": [],
      "name": "withdraw",
      "outputs": [],
      "stateMutability": "nonpayable",
      "type": "function"
    },
    {
      "stateMutability": "payable",
      "type": "receive"
    }
  ],
  "transactionHash": "0xf4a969e9c2f13ab2a11fd46d78fcd7e271b74c54dec0aff2a9d065df84337182",
  "args": [
    "0x5FbDB2315678afecb367f032d93F642f64180aa3"
  ],
  "numDeployments": 1,
  "solcInputHash": "48ec744997dbc983f233ef62e2aeea41",
  "bytecode": "0x60c060405234801561001057600080fd5b50604051610f43380380610f4383398181016040528101906100329190610109565b3373ffffffffffffffffffffffffffffffffffffffff1660808173ffffffffffffffffffffffffffffffffffffffff1660601b815250508073ffffffffffffffffffffffffffffffffffffffff1660a08173ffffffffffffffffffffffffffffffffffffffff1660601b8152505050610136565b600080fd5b600073ffffffffffffffffffffffffffffffffffffffff82169050919050565b60006100d6826100ab565b9050919050565b6100e6816100cb565b81146100f157600080fd5b50565b600081519050610103816100dd565b92915050565b60006020828403121561011f5761011e6100a6565b5b600061012d848285016100f4565b91505092915050565b60805160601c60a05160601c610dd461016f600039600081816101b801526105d40152600081816102f301526105f80152610dd46000f3fe6080604052600436106100745760003560e01c80636b69a5921161004e5780636b69a5921461011e578063741bef1a14610149578063b60d428814610174578063dba6335f1461017e57610083565b80632398fa151461008d5780633ccfd60b146100ca57806354861af7146100e157610083565b36610083576100816101a9565b005b61008b6101a9565b005b34801561009957600080fd5b506100b460048036038101906100af91906107f5565b6102d9565b6040516100c1919061083b565b60405180910390f35b3480156100d657600080fd5b506100df6102f1565b005b3480156100ed57600080fd5b5061010860048036038101906101039190610882565b610586565b60405161011591906108be565b60405180910390f35b34801561012a57600080fd5b506101336105c5565b604051610140919061083b565b60405180910390f35b34801561015557600080fd5b5061015e6105d2565b60405161016b9190610938565b60405180910390f35b61017c6101a9565b005b34801561018a57600080fd5b506101936105f6565b6040516101a091906108be565b60405180910390f35b6802b5e3af16b18800006101e67f00000000000000000000000000000000000000000000000000000000000000003461061a90919063ffffffff16565b101561021e576040517f6522a54f00000000000000000000000000000000000000000000000000000000815260040160405180910390fd5b6000339080600181540180825580915050600190039060005260206000200160009091909190916101000a81548173ffffffffffffffffffffffffffffffffffffffff021916908373ffffffffffffffffffffffffffffffffffffffff16021790555034600160003373ffffffffffffffffffffffffffffffffffffffff1673ffffffffffffffffffffffffffffffffffffffff16815260200190815260200160002060008282546102d09190610982565b92505081905550565b60016020528060005260406000206000915090505481565b7f000000000000000000000000000000000000000000000000000000000000000073ffffffffffffffffffffffffffffffffffffffff163373ffffffffffffffffffffffffffffffffffffffff1614610376576040517f579610db00000000000000000000000000000000000000000000000000000000815260040160405180910390fd5b6000808054806020026020016040519081016040528092919081815260200182805480156103f957602002820191906000526020600020905b8160009054906101000a900473ffffffffffffffffffffffffffffffffffffffff1673ffffffffffffffffffffffffffffffffffffffff16815260200190600101908083116103af575b5050505050905060005b815181101561047e57600060016000848481518110610425576104246109d8565b5b602002602001015173ffffffffffffffffffffffffffffffffffffffff1673ffffffffffffffffffffffffffffffffffffffff16815260200190815260200160002081905550808061047690610a07565b915050610403565b50600067ffffffffffffffff81111561049a57610499610a50565b5b6040519080825280602002602001820160405280156104c85781602001602082028036833780820191505090505b50600090805190602001906104de9291906106eb565b5060003373ffffffffffffffffffffffffffffffffffffffff164760405161050590610ab0565b60006040518083038185875af1925050503d8060008114610542576040519150601f19603f3d011682016040523d82523d6000602084013e610547565b606091505b5050905080610582576040517f867d8d1d00000000000000000000000000000000000000000000000000000000815260040160405180910390fd5b5050565b6000818154811061059657600080fd5b906000526020600020016000915054906101000a900473ffffffffffffffffffffffffffffffffffffffff1681565b6802b5e3af16b188000081565b7f000000000000000000000000000000000000000000000000000000000000000081565b7f000000000000000000000000000000000000000000000000000000000000000081565b6000670de0b6b3a76400008361062f8461064b565b6106399190610ac5565b6106439190610b4e565b905092915050565b6000808273ffffffffffffffffffffffffffffffffffffffff1663feaf968c6040518163ffffffff1660e01b815260040160a06040518083038186803b15801561069457600080fd5b505afa1580156106a8573d6000803e3d6000fd5b505050506040513d601f19601f820116820180604052508101906106cc9190610c0c565b5050509150506402540be400816106e39190610c87565b915050919050565b828054828255906000526020600020908101928215610764579160200282015b828111156107635782518260006101000a81548173ffffffffffffffffffffffffffffffffffffffff021916908373ffffffffffffffffffffffffffffffffffffffff1602179055509160200191906001019061070b565b5b5090506107719190610775565b5090565b5b8082111561078e576000816000905550600101610776565b5090565b600080fd5b600073ffffffffffffffffffffffffffffffffffffffff82169050919050565b60006107c282610797565b9050919050565b6107d2816107b7565b81146107dd57600080fd5b50565b6000813590506107ef816107c9565b92915050565b60006020828403121561080b5761080a610792565b5b6000610819848285016107e0565b91505092915050565b6000819050919050565b61083581610822565b82525050565b6000602082019050610850600083018461082c565b92915050565b61085f81610822565b811461086a57600080fd5b50565b60008135905061087c81610856565b92915050565b60006020828403121561089857610897610792565b5b60006108a68482850161086d565b91505092915050565b6108b8816107b7565b82525050565b60006020820190506108d360008301846108af565b92915050565b6000819050919050565b60006108fe6108f96108f484610797565b6108d9565b610797565b9050919050565b6000610910826108e3565b9050919050565b600061092282610905565b9050919050565b61093281610917565b82525050565b600060208201905061094d6000830184610929565b92915050565b7f4e487b7100000000000000000000000000000000000000000000000000000000600052601160045260246000fd5b600061098d82610822565b915061099883610822565b9250827fffffffffffffffffffffffffffffffffffffffffffffffffffffffffffffffff038211156109cd576109cc610953565b5b828201905092915050565b7f4e487b7100000000000000000000000000000000000000000000000000000000600052603260045260246000fd5b6000610a1282610822565b91507fffffffffffffffffffffffffffffffffffffffffffffffffffffffffffffffff821415610a4557610a44610953565b5b600182019050919050565b7f4e487b7100000000000000000000000000000000000000000000000000000000600052604160045260246000fd5b600081905092915050565b50565b6000610a9a600083610a7f565b9150610aa582610a8a565b600082019050919050565b6000610abb82610a8d565b9150819050919050565b6000610ad082610822565b9150610adb83610822565b9250817fffffffffffffffffffffffffffffffffffffffffffffffffffffffffffffffff0483118215151615610b1457610b13610953565b5b828202905092915050565b7f4e487b7100000000000000000000000000000000000000000000000000000000600052601260045260246000fd5b6000610b5982610822565b9150610b6483610822565b925082610b7457610b73610b1f565b5b828204905092915050565b600069ffffffffffffffffffff82169050919050565b610b9e81610b7f565b8114610ba957600080fd5b50565b600081519050610bbb81610b95565b92915050565b6000819050919050565b610bd481610bc1565b8114610bdf57600080fd5b50565b600081519050610bf181610bcb565b92915050565b600081519050610c0681610856565b92915050565b600080600080600060a08688031215610c2857610c27610792565b5b6000610c3688828901610bac565b9550506020610c4788828901610be2565b9450506040610c5888828901610bf7565b9350506060610c6988828901610bf7565b9250506080610c7a88828901610bac565b9150509295509295909350565b6000610c9282610bc1565b9150610c9d83610bc1565b9250827f7fffffffffffffffffffffffffffffffffffffffffffffffffffffffffffffff0482116000841360008413161615610cdc57610cdb610953565b5b817f80000000000000000000000000000000000000000000000000000000000000000583126000841260008413161615610d1957610d18610953565b5b827f80000000000000000000000000000000000000000000000000000000000000000582126000841360008412161615610d5657610d55610953565b5b827f7fffffffffffffffffffffffffffffffffffffffffffffffffffffffffffffff0582126000841260008412161615610d9357610d92610953565b5b82820290509291505056fea26469706673582212207b4bd87eea3f4f98616722b350de8cca2dd16b358e25ced64a695775c8cc744b64736f6c63430008080033",
  "devdoc": {
    "kind": "dev",
    "methods": {},
    "version": 1
  },
  "userdoc": {
    "kind": "user",
    "methods": {},
    "version": 1
  },
  "storageLayout": {
    "storage": [
      {
        "astId": 65,
        "contract": "contracts/FundMe.sol:FundMe",
        "label": "s_funders",
        "offset": 0,
        "slot": "0",
        "type": "t_array(t_address)dyn_storage"
      },
      {
        "astId": 69,
        "contract": "contracts/FundMe.sol:FundMe",
        "label": "addressToamountFunded",
        "offset": 0,
        "slot": "1",
        "type": "t_mapping(t_address,t_uint256)"
      }
    ],
    "types": {
      "t_address": {
        "encoding": "inplace",
        "label": "address",
        "numberOfBytes": "20"
      },
      "t_array(t_address)dyn_storage": {
        "base": "t_address",
        "encoding": "dynamic_array",
        "label": "address[]",
        "numberOfBytes": "32"
      },
      "t_mapping(t_address,t_uint256)": {
        "encoding": "mapping",
        "key": "t_address",
        "label": "mapping(address => uint256)",
        "numberOfBytes": "32",
        "value": "t_uint256"
      },
      "t_uint256": {
        "encoding": "inplace",
        "label": "uint256",
        "numberOfBytes": "32"
      }
    }
  }
}